:020000040007F3
:1010000000B20020D5130700DD130700DF1307002F
:10101000E1130700E3130700E513070000000000D9
:10102000000000000000000000000000C1130700E5
:10103000E913070000000000EB130700ED130700A1
:10104000EF130700EF130700EF130700EF1307007C
:10105000EF130700EF130700EF130700EF1307006C
:10106000EF130700EF130700EF130700EF1307005C
:10107000EF130700EF130700EF130700EF1307004C
:101080007D280700EF130700EF130700EF13070099
:10109000EF130700EF130700A1250700EF13070068
:1010A000EF130700EF130700EF130700EF1307001C
:1010B000EF130700EF13070000000000000000001E
:1010C000EF130700EF130700EF130700EF130700FC
:1010D0009D240700EF130700EF1307000000000036
:1010E0000000000000000000000000000000000000
:1010F00000000000000000000000000000000000F0
:1011000000000000000000000000000000000000DF
:1011100000000000000000000000000000000000CF
:1011200000000000000000000000000000000000BF
:1011300000000000000000000000000000000000AF
:10114000000000000000000000000000000000009F
:10115000000000000000000000000000000000008F
:10116000000000000000000000000000000000007F
:10117000000000000000000000000000000000006F
:10118000000000000000000000000000000000005F
:10119000000000000000000000000000000000004F
:1011A000000000000000000000000000000000003F
:1011B000000000000000000000000000000000002F
:1011C000000000000000000000000000000000001F
:1011D000000000000000000000000000000000000F
:1011E00000000000000000000000000000000000FF
:1011F00000000000000000000000000000000000EF
:10120000DFF80CD000F04EF900480047E94B07002A
:1012100000B2002030B450E8012F93B2C4892344B7
:101220008489A34228BF1B1B0489A34202BFBFF3CA
:101230002F8F002007E0C3EA020340E80134002CAE
:10124000E9D14FF001000A6030BC704750E8012F2F
:10125000C2EA024240E801210029F7D1704730B4C8
:1012600050E8022F1FFAA2F3C488A34202BFBFF3C3
:101270002F8F00200DE0C48923448489A34228BF16
:101280001B1BC2EA034340E80234002CE8D14FF0B4
:1012900001000A6030BC704750E8022FC2EA2242C7
:1012A00040E802210029F7D17047034653E8022F96
:1012B000D988B2EB324F4FF0000017BF92B241EA2B
:1012C000014142EA014104E05A68B2EB324F08BFE3
:1012D000012043E80212002AE8D1704730B40446E6
:1012E00054E8000F0D4644E80053002BF8D1156078
:1012F00030BC704730B4044654E8000F40EA0105A2
:1013000044E80053002BF7D1156030BC704730B46F
:10131000044654E8000F00EA010544E80053002B9E
:10132000F7D1156030BC704730B4044654E8000F64
:1013300080EA010544E80053002BF7D1156030BC6A
:10134000704730B4044654E8000F00EB010544E850
:101350000053002BF7D1156030BC704730B4044601
:1013600054E8000FA0EB010544E80053002BF7D12F
:10137000156030BC704770B404464FF0000054E86C
:10138000006F0D68AE4207BF44E80023012044E827
:1013900000630E60002B1CBF0020F0E770BC70479C
:1013A00030B4044654E8000F88422CBF451A054665
:1013B00044E80053002BF5D1156030BC70470000A5
:1013C0001EF0040F0CBFEFF30880EFF3098007F065
:1013D0003DBB00000648804706480047FEE7FEE7A1
:1013E000FEE7FEE7FEE7FEE7FEE7FEE7FEE7FEE7D5
:1013F000A525070001120700202A04DB203A00FA85
:1014000002F1002070479140C2F1200320FA03F35B
:1014100019439040704700000048704790BC070097
:1014200040EA01039B0703D009E008C9121F08C066
:10143000042AFAD203E011F8013B00F8013B521EE6
:10144000F9D27047D2B201E000F8012B491EFBD25D
:1014500070470022F6E710B513460A4604461946BF
:10146000FFF7F0FF204610BD421C10F8011B0029B9
:10147000FBD1801A704730B504460020034600E0D7
:101480005B1C934203D2E05CCD5C401BF8D030BDC6
:10149000034611F8012B00F8012B002AF9D1184658
:1014A00070470000064C074D06E0E06840F001037D
:1014B00094E8070098471034AC42F6D3FFF7A4FE37
:1014C00090CC0700B0CC07002DE9F0478AB0144655
:1014D000DDF848A055461F4615F9046B0096804676
:1014E00089462B460246214602A800F09DFC02A92F
:1014F0005246084600F094FC534602AA4146404634
:1015000000F07EFC534602AA2146204600F078FCFB
:101510002B464A4639463846009600F085FC52462E
:10152000394602A800F07CFC02A92B464246084638
:10153000009600F079FC02A92B4622460846009648
:1015400000F072FC2B46424621462046009600F0F1
:101550006BFC534622464946484600F051FC2B4658
:1015600002AA41462046009600F05EFC5346224601
:101570003946384600F044FC2B464A463946384640
:10158000009600F051FC324602A9204600F016FEFB
:101590000AB0BDE8F08770B514468AB006460D461D
:1015A0001A46214602A8019300F03AFC019B02AAC8
:1015B0003146304600F024FC02A9019B2246084631
:1015C00000F01EFC019B02AA2946284600F018FCE8
:1015D0000AB070BD8B1802448B4200D1704713F8DB
:1015E000010D02F8010DF7E72DE9F0479846B3F930
:1015F0000230894613F11F0148BF03F13E01DD1D92
:1016000048BF03F10E05EC104E11944275B228BF8D
:1016100014462946074600F087FA22464946FFF756
:10162000D9FFB8F90230B3EBC40F4FEAC40220D29D
:10163000D21A07EB86010020C2F120068F420FD399
:1016400008F124082A463946404600F078FA012875
:101650000FD02B4642463846BDE8F04700F0C0BDEB
:1016600051F8044D24FA02F303430B6004FA06F028
:10167000E4E7BDE8F0872DE9F04793F9006092B008
:10168000044689461046314615461F4600F06CFA5E
:10169000002840F091803A46494602A800F0C0FB7D
:1016A0003B4602AA21460AA800F0AAFB02A9084666
:1016B0003A4600F0B5FB3B462A464946484600F00C
:1016C0009FFB07F104083A462946284600F0A8FB8C
:1016D00043462A4621462046009600F054FA4346E7
:1016E0002A4629462846009600F04DFA43462A46E7
:1016F00021462846009600F097FB3B462A462146A5
:10170000204600F07DFB43462246214628460096AF
:1017100000F039FA434600962A462146204600F05A
:1017200032FA2368DB074AD5334642462146204633
:1017300000F0CEF931468246204600F032FD06F137
:101740008043013B54F8232042EACA7244F8232024
:101750003A462146284600F063FB43460AAA29463A
:101760002846009600F060FB43460AAA2946284610
:10177000009600F059FB0AA9084643462A460096FF
:1017800000F052FB3B460AAA2146204600F038FBF7
:1017900002AA434610462146009600F045FB324619
:1017A0002946204600F00AFD4946284600F006FD7D
:1017B00002A9484600F002FD12B0BDE8F0873146AC
:1017C000204600F0EEFCC3E700487047E0CB07007E
:1017D0002DE9F04F2DED028BEDB08946789E0590F6
:1017E0001946B6F9023096F9004013F11F0748BFB9
:1017F00003F13E0747F3471707F1FF3B24AB0025F2
:1018000043F82B506CAB03EB8B0307EE902A4CA8EC
:1018100096F9012043F8805C43F8605CFFF7DAFE3C
:1018200096F9012054A81144FFF7D4FE21464CA894
:1018300000F09AF98046002840F0428154A800F058
:1018400093F90390002840F03D8106F1240A3A46BE
:101850004CA9504600F073F9012840F035813A4612
:1018600054A9504600F06BF90128069040F02C81F5
:101870001CAD3B46524654A9284600F0A0F90DF194
:101880003008039B48F82B3017EE902A4946404613
:101890003346FFF7A9FE4146404653462A46009785
:1018A00000F010FA0DF5B87B53462A464CA914A84F
:1018B000009700F007FA22465846059900F07EFC92
:1018C000A3000793059B0BEB840903EB84014846B7
:1018D00000F074FC06F14403194634A8049300F0A8
:1018E0006DFC049BA10059183CA800F067FC331D57
:1018F00008EE903A594634AA2846009400F094FA2B
:101900004B465A463CA934A80096FFF7DDFD18EE79
:10191000902A23462946284600F051F92A4649468E
:1019200058463346FFF737FE039B0893049B099301
:10193000059B39464046CDE90A3B00F012FC39468A
:10194000834614A800F00DFC5845B8BF58461FFA4E
:1019500080FB0BF1FF3109B24046049100F070FCAE
:101960000499B0F1000814A818BF4FF0010800F066
:1019700067FC002814BF0220002048EA00080DF18F
:101980002009224659F8281024A800F017FC0DF170
:10199000B009A3001944484600F010FC214628462F
:1019A00000F0C2F8069B2B60ABF1020824AB08EEF6
:1019B000105A0FFA88F80493B8F1000F2ADA18EEDB
:1019C000902A18EE101A18EE100A234600F0F7F8C5
:1019D00018EE102A049833464946FFF7DCFD0499B7
:1019E0003A46504600F0ABF8012805D004993B4632
:1019F0005246084600F0F4FB013C64B24CAA2306B0
:101A000053D5039BB3FA83F040096DB0BDEC028B54
:101A1000BDE8F08F334618EE102A0498D6F8A4508B
:101A20004946A84741460CA800F00AFC4146B0F1DF
:101A3000000B14A818BF4FF0010B00F001FC0028A8
:101A400014BF022000204BEA000B08AB53F82B1008
:101A500031B3224634A800F0B1FB079B3CA81944DF
:101A600000F0ACFB18EE102A33463CA934A8FFF76F
:101A700092FD18EE903A0499009434AA44A800F01C
:101A8000D3F9049A00964B463CA934A8FFF71CFDF5
:101A900018EE101A18EE100A334644AA00F0B0F9F6
:101AA00008F1FF380FFA88F886E7049B52F82410F3
:101AB00053F824304B40039919430391013C9EE7AE
:101AC0002846A2E74046A0E703989EE700000000F2
:101AD000C3F10803DB0070B501330446002003A501
:101AE0005B1920C940CAAD1920C4184720C940CA93
:101AF000754120C420C940CA754120C420C940CACC
:101B0000754120C420C940CA754120C420C940CABB
:101B1000754120C420C940CA754120C420C940CAAB
:101B2000754120C4404170BD002310B51C465AB217
:101B3000914200DC10BD40F823400133F7E710B5B7
:101B4000013A52B2130601D5002010BD50F82240D0
:101B500051F822309C4205D802F1FF32F2D24FF008
:101B6000FF30F2E70120F0E710B500231A465CB21F
:101B7000A14203DCB2FA82F0400910BD50F82340C4
:101B800001332243F3E737B51D469DF91830019321
:101B90000446FFF79DFF019B38B91A4621462846A7
:101BA000FFF7CDFF0128019B07D02A46214620469A
:101BB00003B0BDE8304000F013BB03B030BDF0B55A
:101BC0000F46A1B006461946384615461C46FFF793
:101BD000CBFF20B13046FFF7A7FF21B0F0BD224672
:101BE0003946684600F0EAFA294608A800F0E6FA05
:101BF00010A82146FFF798FF012318A81093FFF7BC
:101C000093FF224608A96846FFF799FF28B92246A4
:101C100010A9304600F0D2FADFE7009BDA0709D4BA
:101C20002146684600F0BDFA2246294610A800F079
:101C3000E9FBE6E7089BDB0707D4214608A800F08C
:101C4000B0FA2246294618A8F1E7002823461CDDF1
:101C500008AA6946684600F0C3FA2146684600F0C3
:101C6000A0FA224618A910A8FFF769FF002805DA94
:101C700010A923462A460846FFF72AFF10A9234643
:101C800018AA084600F0ACFACEE708A96A4608464A
:101C900000F0A6FA214608A800F083FA224610A90F
:101CA00018A8FFF74CFF002805DA18A923462A4692
:101CB0000846FFF70DFF18A9234610AA084600F0B2
:101CC0008FFABEE72DE9F04FB5B004AC9DF9F8509E
:101CD0001E4680462B46204600F0BAF824AB294623
:101CE0003046CDE9023400F03CFAC0EB851004B276
:101CF000002C2146B8BF04F11F01634241F3471194
:101D000003F01F0314A804F01F0758BF5F42FFF73A
:101D10000BFF002F08B22BDD14AB002203EB800178
:101D2000C7F1200E1346AB4217D36B00019314ABDF
:101D300003EB85096F1E34AB012603EB8707002CEC
:101D400054DA34AB03EB86062A4656F8C81C4046E4
:101D500000F034FA35B0BDE8F08F56F823C00CFA25
:101D600007F0024341F8042B01332CFA0EF2DAE7B4
:101D700014AB2A46314603EB800000F01FFAD4E78B
:101D80000FFA82FE5AF8C83C53F82EB034AB03EB7E
:101D90008202013052F8803C0B44BBEB030334BF9A
:101DA000012200229B4518BF11465CF8C82C42F85E
:101DB0002E30019B42B29A42E2DB731A5E42294600
:101DC00014A85E4100F0EDF934AB03EB850329461E
:101DD00053F8802C57F8803C484643EAC273013CD4
:101DE00047F8803C24B200F0DCF9A8E734AB0020CF
:101DF000C6F1010C014603EB860A03EB8C0CD8E715
:101E000030B51C4691B0054693F90030684600F0A5
:101E10001FF8D4F8AC3069462846984711B030BD59
:101E200013460A46FFF7ECBF37B51D469DF918303B
:101E30000193044600F0D4F9019B38B12A462146AB
:101E4000204603B0BDE83040FFF742BE03B030BDCE
:101E50002DE9F04F08B4F8CA04B451F8042BA3FBE1
:101E6000028940F8048B4FF0000AE4FB629A4FF0BD
:101E7000000BE5FB62AB4FF0000CE6FB62BC4FF0E1
:101E8000000EE7FB62CE51F8042B4FF00008E3FB95
:101E9000628940F8048BE4FB629AE5FB62ABE6FBE7
:101EA00062BCE7FB62CE51F8042B4FF00008E3FB65
:101EB000628940F8048BE4FB629AE5FB62ABE6FBC7
:101EC00062BCE7FB62CE51F8042B4FF00008E3FB45
:101ED000628940F8048BE4FB629AE5FB62ABE6FBA7
:101EE00062BCE7FB62CE51F8042B4FF00008E3FB25
:101EF000628940F8048BE4FB629AE5FB62ABE6FB87
:101F000062BCE7FB62CE40F8049B40F804AB40F8AB
:101F100004BB40F804CB40F804EB0CBC052B00F0EC
:101F20001E810C68A0F11400A1F11401A2F11402A9
:101F300052F804EB4FF0000550F8046BE4FB6E56CA
:101F400052F804EB50F8047BE4FB6E6752F804EBA4
:101F500050F8048BE4FB6E7852F804EB50F8049BC5
:101F6000E4FB6E8952F804EB50F804ABE4FB6E9A84
:101F7000A0F1140052F8044B51F804EB4FF0000CA0
:101F8000E4FB6EC540F804CB51F804EBE4FB6E565D
:101F900040F8045B51F804EBE4FB6E6740F8046B17
:101FA00051F804EBE4FB6E7840F8047B51F804EB45
:101FB000E4FB6E8940F8048B51F804EBE4FB6E9A65
:101FC000A0E80006062B00F0CA800C68A0F11800FB
:101FD000A1F11801A2F1180252F804EB4FF000052C
:101FE00050F8046BE4FB6E5652F804EB50F8047B97
:101FF000E4FB6E6752F804EB50F8048BE4FB6E7858
:1020000052F804EB50F8049BE4FB6E8952F804EBA1
:1020100050F804ABE4FB6E9A52F804EB50F804BBA2
:10202000E4FB6EABA0F1180052F8044B51F804EB3E
:102030004FF0000CE4FB6EC540F804CB51F804EB04
:10204000E4FB6E5640F8045B51F804EBE4FB6E676A
:1020500040F8046B51F804EBE4FB6E7840F8047B25
:1020600051F804EBE4FB6E8940F8048B51F804EB63
:10207000E4FB6E9A40F8049B51F804EBE4FB6EAB72
:10208000A0E8000C072B6AD008B40C68A0F11C0073
:10209000A1F11C01A2F11C0252F804EB4FF0000563
:1020A00050F8046BE4FB6E5652F804EB50F8047BD6
:1020B000E4FB6E6752F804EB50F8048BE4FB6E7897
:1020C00052F804EB50F8049BE4FB6E8952F804EBE1
:1020D00050F804ABE4FB6E9A52F804EB50F804BBE2
:1020E000E4FB6EAB52F804EB50F804CBE4FB6EBC9F
:1020F000A0F11C0052F8044B51F804EB4FF0000320
:10210000E4FB6E3540F8043B51F804EBE4FB6E56FB
:1021100040F8045B51F804EBE4FB6E6740F8046B95
:1021200051F804EBE4FB6E7840F8047B51F804EBC3
:10213000E4FB6E8940F8048B51F804EBE4FB6E9AE3
:1021400040F8049B51F804EBE4FB6EAB40F804ABA1
:1021500051F804EBE4FB6EBCA0E8001808BCBDE835
:10216000F08F013910B549B2041D0A06CBB204D470
:10217000013954F82120002AF7D001335BB273B142
:1021800003F18042013A50F82220002022B9013B9D
:1021900000EB431318B210BD52080130F6E71846A1
:1021A000F9E700EB81010023884200D3704751F822
:1021B000042D43EA52030B60D307F5E710B5002363
:1021C0005CB2A24200DC10BD51F8234040F823402D
:1021D0000133F5E7000000000000000000000000EF
:1021E000C3F10803DB0070B50133002403A500BF71
:1021F0005B1920C940CAAD1B20C0184720C940CA7E
:10220000B54120C020C940CAB54120C020C940CA3C
:10221000B54120C020C940CAB54120C020C940CA2C
:10222000B54120C020C940CAB54120C020C940CA1C
:10223000B54120C06441B4FA84F0400970BD00BFCC
:102240004A11012350F8220001F01F0103FA01F1A5
:10225000084070472DE9F042082288B00C468146BC
:10226000FFF7ACFFCB6A03930B6B04934B6B0593A7
:102270008B6B0693CB6B0793002708236A4669464E
:102280006846CDE901770097FFF722FC0823054651
:102290006A4649464846FFF71BFC236B0393636B72
:1022A0000493A36B0593E36B0544CDE906376A46B7
:1022B000082369466846FFF70BFC082305446A4675
:1022C00049464846FFF704FC236A0093636A01937A
:1022D000A36A0293A36B0693E36B07930544082359
:1022E0006A4649464846CDE904770397FFF7F0FB75
:1022F000636A0093A36AA26B0193E36A0293049258
:10230000636BE26B0393CDE90523236A07932E18D1
:1023100008236A4649464846FFF7DAFBE36A00931A
:10232000236B0193636B0293236A0693A36A07935B
:10233000351808236A4649464846CDE9047703978D
:10234000FFF74EFF236B0093636B0193A36B029324
:10235000E36B0393636A0693E36A07932E1A0823D9
:102360006A4649464846CDE90477FFF739FF636B73
:102370000093A36B0193E36B0293236A0393636A55
:102380000493A36ACDE90537236B0793361A082314
:102390006A4649464846FFF723FFA36B0093E36B69
:1023A000CDE90137636A0393A36A0493E36ACDE935
:1023B0000537636B0793361A08236A464946484631
:1023C000FFF70EFF361A0E4C0FD436B908224946D5
:1023D0002046FFF7B4FB01280FD0082322464946C8
:1023E0004846FFF7FDFE361AEFE708232246494626
:1023F0004846FFF76DFB3618F7D408B0BDE8F08209
:10240000E4CB070070B5036813F0010605461446D7
:1024100005D013460A460146FFF75AFB06462146F9
:102420002846FFF7BEFE46B104F18042013A55F856
:10243000223043F0004345F8223070BD2DE9F041D1
:1024400015468AB004460E461C22002103A8FFF759
:1024500002F82F1D95F9008003232A4631462046B5
:102460000293FFF7DDFC3B4602AA21462046CDF849
:102470000080FFF7D9FC2B46324621462046FFF765
:10248000BFFCCDF800803B4605F184022146204682
:10249000FFF779FB0AB0BDE8F08100002DE9F041BB
:1024A0001E4E4FF48271D6F8040130B11C48C26848
:1024B000521CC260304605F0EDFF00254FF4A077B6
:1024C00007EB85018AB23046B25812B389B205F0E3
:1024D000E1FF1348103000EB0514204608F018FE09
:1024E000104811492246401AC008042101EB00405F
:1024F0000EA105F091FD616819B1204608F05EFD5E
:1025000007E0A16811B1204608F058FD206800B12D
:1025100080476D1C022DD3D3BDE8F08100400240FE
:102520007059002018CD0700C8CC070074696D658C
:10253000725F66697265202830782578290000006E
:1025400000F0ACB970B50E46144900EB400001EB49
:10255000C0051446E86A183520B101280FD00228BA
:1025600005D113E0284600F0CFF9A04201D20024A3
:1025700011E022463146284600F0FEF90BE02846DD
:1025800000F0C2F9A042F4D20446F2E731462846F0
:1025900000F0C5F90446204670BD0000749100208B
:1025A00006F052B9F0B5A449A4484FF080540B6826
:1025B000D4F830210078D4F83411551CC0F303103E
:1025C00006D0944601270026BCF1060F03D00AE08E
:1025D00003F0FF0CF6E7B4F82453DFF864C2C5F348
:1025E0000425CCF80050DDB2062D06D1032804D115
:1025F000DFF854C2934DCCF87450551C04D0944667
:10260000BCF1060F03D00AE003F0FF0CF8E7D4F8A2
:102610004452DFF838C2C5F34235CCF80050DDB281
:10262000062D08D1032806D1894DD5F800C02CF01D
:10263000807CC5F800C0551C04D09446BCF1060F40
:1026400003D00BE003F0FF0CF8E74FF08045C5F82E
:102650000C61C5F810617D4D2D1F2E60DDB2062D79
:1026600008D1032806D1DFF8E4C103250CF1640C7E
:10267000CCF80050DDB2062D10D103280ED1DFF8C2
:10268000D4C10525CCF80050724D78352F60714DBE
:1026900008352E600CF104063F253560551C04D02A
:1026A00016460D46062E03D05BE0DEB20546F9E77E
:1026B000ED1E012D55D9684D2D68684E3560664D6B
:1026C0002D1D2D68361D3560634D08352D68361D6E
:1026D0003560614D0C352D68361D35605E4D103509
:1026E0002D68361D35605C4D14352D68361D3560FE
:1026F000594D18352D68594E20363560564D1C35CC
:102700002D68361D3560544D20352D68361D3560D9
:10271000514D24352D68361D35604F4D28352D68B7
:10272000361D35604C4D2C352D68361D35604A4DB3
:1027300030352D68494E40363560474D34352D686B
:10274000361D3560444D38352D68361D3560424D97
:102750003C352D68361D35603F4D40352D68361DA2
:102760003560551C03D01646062E02D007E0DEB2B7
:10277000FAE7D4F858523A4E05F04F053560551C2B
:1027800003D01346062B02D008E0DBB2FAE7354847
:102790000368DB0702D06FF001030360062A07D14C
:1027A000C91E022904D93048016841F480610160E2
:1027B00027487438016841F470010160BFF34F8FFE
:1027C000BFF36F8FD4E94C104FF01022062907D1C8
:1027D000C01E032804D9D2F808021C491C31086025
:1027E000D2F80002002803DBD2F8040200281FDA26
:1027F000012006F079F91521C2F800121B48036880
:10280000002BFCD0C2F8041201680029FCD0002083
:1028100006F06AF9BFF34F8F0D48F0380168144A8B
:1028200001F4E06111430160BFF34F8F00BFFDE78A
:10283000114910480860F0BDE00F00F0E80F00F00B
:10284000403501400DF0ADBA00C007403C050040E6
:10285000FCED00E0105600400404001020C50040CC
:10286000E40E0040000400403C17004000E401403A
:102870000400FA050090D0036C5A0020064808B501
:10288000002101600068009005F07AFC05F04EFA26
:102890000028FBD108BD00000001014010B5124C1A
:1028A00002202061606111A0A06104F17800E06164
:1028B0004FF4805020620020A06260620BA1A164EE
:1028C000E0620D49E1641021A065C4E91410E065DF
:1028D0000AA1E01DFEF7DCFD09A12046FEF7D8FDA8
:1028E0002020A07110BD0000749100205465726D0D
:1028F000696E616C00000000ECA10020525454008D
:1029000053454747455200000269C1688A4203D8CF
:102910008068401A104400E0501A401E70472DE9AC
:10292000F047C4681746894606464FF000083069EC
:10293000A04201D9051B02E0B168201A0D1AB06847
:102940006D1E001BA84200D80546BD4200D33D467F
:1029500070682A4620444946FEF762FDB0687F1B36
:102960002C44A844A944A04200D10024F460002FC4
:10297000DDD14046BDE8F0872DE9F04104468846A8
:10298000D4E90207C51BE168606816460844B542F1
:1029900006D94146FEF744FDB819E060BDE8F08174
:1029A0002A464146FEF73CFD761B08EB0501324600
:1029B0006068FEF735FDE660F0E702E008C8121F28
:1029C00008C1002AFAD170477047002001E001C118
:1029D000121F002AFBD170470121202803DA814011
:1029E0000548014003E0402802DA2038814009B15F
:1029F0000120704700207047FC06FFBD800701D012
:102A0000002070470120704740680068401E08425F
:102A100001D10120704700207047C3688B4206D85F
:102A200011440069491E814201D8012070470020ED
:102A30007047000030B585B00D46164C1621ADF834
:102A400000101ECC0DF1040C8CE81E00124C02216B
:102A5000012221706270A0700320E0702171592062
:102A60006071FE20A071694604F109007DDF002835
:102A70000ED1BDF800002A46411CE17109212172E6
:102A8000BDF808100844ADF8080001A9034872DF3A
:102A900005B030BD50B70700A45E0020A859002043
:102AA00010B586B0062418220D496846FEF7B8FC1A
:102AB0000C480D49401AC008042101EB00400BA14D
:102AC00005F0A6FA69462046FFF7B4FF002805D1B5
:102AD0000A4C207874DF0121207873DF06B010BD26
:102AE00060B70700D0CC0700C8CC0700416476650A
:102AF00072746973696E672E2E2E0000A85900202B
:102B00002DE9F05FDFF89CB05C46DBF84890DBF81D
:102B1000246003F031F8216B4718751A22482349C5
:102B2000401AC108042000EB0140804620A105F0B6
:102B30006FFA216B4944B94200D1002508232A4687
:102B4000384601F0DFFD0700184817494FF0010A29
:102B5000A1EB00004FEAD0010AEB014404D020466B
:102B60001AA105F055FA19E003F006F800223146E3
:102B700001F0F4F9DBF828200546D946AA4208D12D
:102B8000404619A105F044FAC9E9075AC9F8186086
:102B900004E020462B461A4905F045FA3846BDE8C0
:102BA000F09F00003C76002018CD0700C8CC07003D
:102BB000456E746572206E72665F6466755F6170E3
:102BC000705F636F6E74696E756500004661696C55
:102BD000656420746F20636F7079206669726D7709
:102BE0006172652E0000000053657474696E672081
:102BF0006170702061732076616C69640000000070
:102C000080BD070008B51346024600930648074BEF
:102C1000C01AC008012303EB00400B4604A105F0D5
:102C20000AFA06F0F9FB000018CD0700C8CC07002F
:102C300052656365697665642061206661756C74B0
:102C4000212069643A203078253038782C20706350
:102C50003A203078253038782C20696E666F3A201B
:102C60003078253038780000024606480649401A78
:102C7000C008012101EB004004A105F0CDF906F0E8
:102C8000CBFB000018CD0700C8CC07005265636578
:102C90006976656420616E206572726F723A2030C9
:102CA00078253038782100002DE9F04107461E4E86
:102CB0001E481F49326A401AC508012A04D0032061
:102CC00000EB05401BA12BE04FF44050184B174C74
:102CD0004168E31A234A0220DB0800EB03449142D7
:102CE00006D1C1023B462048726B00F05DFF90B1F7
:102CF00002F042FF01461C483B464130B26900F0F9
:102D000053FF58B1042000EB054018A105F080F9ED
:102D10000120BDE8F081204618A101E0204626A14F
:102D200005F076F90020F4E73C76002018CD070086
:102D3000C8CC0700426F6F742076616C696461745F
:102D4000696F6E206661696C65642E204E6F207617
:102D5000616C69642061707020746F20626F6F74A1
:102D60002E000000DBE5B1519C78002041707020FE
:102D700069732076616C696400000000426F6F74B3
:102D80002076616C69646174696F6E206661696C3C
:102D900065642E20536F66744465766963652069A7
:102DA000732070726573656E742062757420696E2D
:102DB00076616C69642E0000426F6F742076616CDE
:102DC00069646174696F6E206661696C65642E2048
:102DD00041707020697320696E76616C69642E00A1
:102DE0002DE9F84F254C8146924660880E46814277
:102DF00041D800274FF6FF788DF80070684600F044
:102E000075F822786078A188884201DA401C00E0D9
:102E10000020C0B2904204D19DF8000000F0B2F84A
:102E200027E065786078884201DA401C00E00020E5
:102E300060709DF8000000F0A5F8454519D0A06825
:102E4000B9F1000F40F835A00DD066B16188E06897
:102E5000324605FB01004946FEF7E2FAA06800EBA6
:102E6000C500868002E000EBC50087800020BDE839
:102E7000F88F0420FBE70920F9E70000EC59002057
:102E800010B50E4C03E0401C00E0002020702078BC
:102E90006178814210D022786188E068A36802FBE3
:102EA000010003EBC20153F8322089889047207853
:102EB000A1888842E9DAE6E710BD0000EC5900205D
:102EC00030B5CB0008339DB293074FF0000401D01A
:102ED000072030BD044B9A602A44DA605C701C7095
:102EE00058809980002030BDEC59002070B5044610
:102EF00007F054F9012803D010A1432000F086F810
:102F0000EFF3108172B61D4A9368012083B9906077
:102F10004FF0E020D0F88051194B1D401560C0F8EB
:102F20008031D0F8843153604217C0F884210020EA
:102F30002070002900D162B670BD00002E2E5C2EDC
:102F40002E5C2E2E5C2E2E5C2E2E5C636F6D706FB1
:102F50006E656E74735C6C69627261726965735CD4
:102F60007574696C5C6170705F7574696C5F706CAE
:102F70006174666F726D2E6300000000B07D0020EA
:102F8000FC06FFBD10B5044607F008F9012803D080
:102F90000DA1512000F03AF81B498868002811D093
:102FA000002C0FD1EFF3108072B60B684FF0E022C7
:102FB000C2F800314B68C2F8043100228A60002850
:102FC00000D162B610BD00002E2E5C2E2E5C2E2E7F
:102FD0005C2E2E5C2E2E5C636F6D706F6E656E7452
:102FE000735C6C69627261726965735C7574696C3B
:102FF0005C6170705F7574696C5F706C6174666F32
:10300000726D2E6300000000B07D00201CB56A4682
:10301000CDE90001002144F20200FFF7F3FD1CBDE1
:103020002DE9F843274F274857F8246F846CB96877
:10303000AC2901D024B106E0406B0444361A02E00A
:1030400002F0AEFD0446204820492346401A4FEACC
:10305000D008042101EB084005461D4A1DA1009639
:1030600004F0E9FFB868AC2806D13246A4F58041E7
:103070001748FEF700FA00B3324621461448FEF71F
:10308000FAF9D0B128463346224620A104F0CBFFFE
:1030900004F04CFE0028FBD102F042FB31462046F2
:1030A00003F066F9040005D0012101EB084023A1DB
:1030B00004F0AEFF2046BDE8F8830024284626A190
:1030C000F6E700003C76002018CD0700C8CC0700CA
:1030D00000100700566572696679696E6720424C78
:1030E0003A20416464723A203078253038782C20B8
:1030F0005372633A203078253038782C204C656E36
:103100003A2030782530387800000000436F70791D
:10311000696E6720626F6F746C6F616465723A20CC
:103120005372633A203078253038782C204C656E05
:103130003A203078253038780000000052657175EB
:1031400065737420746F20636F707920424C206621
:1031500061696C65640000004E6F20626F6F746C73
:103160006F6164657220636F7079206E6565646558
:10317000642C20626F6F746C6F616465722075706F
:103180006461746520636F6D706C6574652E0000FA
:1031900030B595B0040004D12E4940F24F40FFF7FE
:1031A00035FF2D494FF6FF702246488001208DF8EB
:1031B00012004FF65960ADF8100004A90120A8DFF5
:1031C000002844D1254B0FCB8DE80F00A11C684689
:1031D00062DF00283BD121491C2260390BA8FEF791
:1031E0001FF91F4D142205F1C401A8681290A078A0
:1031F0008DF84A002868139006A8FEF711F912A866
:10320000069013A807902088231D06AA0BA9AADF01
:1032100000281CD11C2205F1D8010BA8FEF700F9EB
:10322000E8681290A0788DF84A006868139014221C
:1032300005F1F40106A8FEF7F3F812A8069013A80A
:103240000790208804F10C0306AA0BA9AADF15B089
:1032500030BD00006CBE0700A859002028B8070048
:1032600020B70700F0B585B00D46040004D13749FA
:1032700040F28710FFF7CAFE25B934494FF4C470F5
:10328000FFF7C4FE14216846FEF7E3F82078032315
:1032900008280BD12E48C188491E89B2C180828876
:1032A000002A4BD0002949D1C28023702178607850
:1032B00060228DF800208DF801108DF802006378EF
:1032C0000325012B16D0234823492278401AC00831
:1032D000022101EB004021A104F0A5FE60780B283B
:1032E00028D101F04FF98DF80300002001F052F9C8
:1032F00004251FE0207809281CD2DFE800F01B1B02
:103300001B211B1B051B2100D4E902706D46E91C23
:10331000666807F023FF044629193046C91C07F0E8
:103320001DFF044429193846C91C07F017FF204423
:10333000C01CC5B22946684606F0F8FF05B0F0BDCE
:10334000D4E90112684606F0E0FFF1E76CBE070021
:10335000A8590020D0CC0700C8CC0700444655200F
:1033600072657175657374202564206661696C658A
:10337000642077697468206572726F723A203078C1
:10338000257800002DE9F0411D4C0026217AC9075F
:1033900033D01C49884230D01B481C49401AC10810
:1033A000042000EB0140054619A104F031FE6088BD
:1033B000A0F57F41FF3916D028461DA104F028FE54
:1033C000A068132140F00400A060608876DF002828
:1033D00014D11B4CC8264FF47A47611C38468847E5
:1033E000761EFAD101E0207874DF05F0C9F90600F5
:1033F00003D1284613A104F00BFE3046BDE8F0814E
:10340000A8590020B0CC0700D0CC0700C8CC0700DA
:103410005368757474696E6720646F776E20424CD0
:1034200045207472616E73706F72742E000000001C
:10343000446973636F6E6E656374696E672E000016
:1034400030B70700424C45207472616E73706F7222
:1034500074207368757420646F776E2E000000000E
:1034600070B5204C06460020217AC90738D11E4885
:103470001E49401AC108042000EB014005461CA16A
:1034800004F0C6FD2248E66001F0BAFD00F01CFB26
:10349000002825D103F042F938B11E4803F032F973
:1034A000A06840F00200A06003E028461AA104F0E2
:1034B000AFFD01F0BBF8002812D116481C30FFF711
:1034C00067FE00280CD1FFF7EBFA002808D1A068AE
:1034D00018A140F00100A060284604F099FD0020EA
:1034E00070BD0000A8590020D0CC0700C8CC070050
:1034F000496E697469616C697A696E6720424C45EE
:1035000020444655207472616E73706F72740000AF
:1035100038CD0700C45E00204E6F2061647665726E
:10352000746973696E67206E616D6520666F756E74
:1035300064000000424C4520444655207472616E80
:1035400073706F727420696E697469616C697A65F1
:10355000642E00002DE9FE439F49A04B0122591A19
:10356000C9080746051D02EB0148008804229C4E4D
:103570004FF0000902EB014421286ED037DC1328FC
:103580006CD01EDC01286AD0102854D0112868D0D5
:10359000122879D1204693A104F03AFDEA8820460A
:1035A0009AA104F039FDAA8820469EA104F034FDBA
:1035B0002A892046A1A104F02FFD6A892046A4A1F2
:1035C000ECE0142875D01A2874D01F285CD120464E
:1035D000A5A104F01DFD291D708875DF040053D0DE
:1035E00040462246ACA104F017FD20461FE05128BA
:1035F0007AD00EDC222878D0232868D024287BD0EB
:10360000502877D103B03946BDE8F043B04805F003
:1036100093BF5228D8D0552837D056286AD1B879C8
:10362000002867D11321708876DF002862D0BDE8BA
:10363000FE43FFF719BB2046A6A104F0E9FC288849
:103640007080F16809B101208847A549708875DF4D
:1036500002004FD04046A3A1A0E07FE055E087E004
:10366000FFE74FF6FF707080307A400704D4FFF711
:1036700017FA08B1FFF7F8FAF16800293AD003B059
:103680000220BDE8F043084734E0FA88F72A14D254
:103690009007B0F1404F0ED0D01F81B2481EC31723
:1036A00000EB937323F00303C01A081A801D85B240
:1036B00004E078E081E0154600E0F72520462B463F
:1036C000944904F0B0FC29467088B5DFADE7204688
:1036D00091A104F09DFCCDF80090CDF80490B8883D
:1036E0000022694690DF2DE046E02EE004E000BFB6
:1036F000FFF7BAFABDE8FE836B89EA8803B020467B
:10370000BDE8F04391A104F08EBC20469FA104F0D7
:103710007FFC734801AA163842F60521806A0190A1
:10372000CDF808D07088ADDF08B1FFF79DFA2046CC
:10373000BDF800209FA104F06FFC00231A468521EC
:1037400070887FDF0028D3D1D4E7287900906B7987
:10375000AA792046A0A104F06EFCCBE72046ADA1DB
:1037600004F056FCCDF80090288869468FDFE9E721
:103770000021708866DF58E7B8790028BAD039464A
:10378000534805F095FE0028B4D007F108015048D1
:1037900005F0B0FA0200ADD04046A9A103B0BDE8E3
:1037A000F04304F039BC2046B2A104F031FC002102
:1037B0000A4628880B4686DF37E7002328881A4602
:1037C0001946B1DF08B1FFF74FFA03B02046BDE854
:1037D000F043B2A104F01CBCC8CC0700D0CC070059
:1037E000A8590020526563656976656420424C459E
:1037F0005F4741505F4556545F434F4E4E5F5041C7
:1038000052414D5F55504441544500006D61785F11
:10381000636F6E6E5F696E74657276616C3A2025B7
:10382000640000006D696E5F636F6E6E5F696E7439
:10383000657276616C3A202564000000736C6176D5
:10384000655F6C6174656E63793A202564000000E1
:10385000636F6E6E5F7375705F74696D656F75749D
:103860003A2025640000000052656365697665644E
:1038700020424C455F4741505F4556545F434F4E91
:103880004E5F504152414D5F5550444154455F5247
:1038900045515545535400004661696C7572652069
:1038A000746F2075706461746520636F6E6E6563FC
:1038B00074696F6E20706172616D657465722072DB
:1038C0006571756573743A203078257800000000C2
:1038D000E05E0020436F6E6E6563746564000000F7
:1038E00036B707004661696C75726520746F207584
:1038F000706461746520636F6E6E656374696F6E6A
:1039000020706172616D65746572733A203078253C
:103910007800000024BE070052656365697665641F
:1039200020424C455F4741505F4556545F444154E7
:10393000415F4C454E4754485F5550444154455FA4
:10394000524551554553542E0000000052656365A1
:103950006976656420424C455F4741505F45565447
:103960005F444154415F4C454E4754485F55504475
:10397000415445202825752C206D61785F72785F51
:1039800074696D65202575292E00000052656365F8
:103990006976656420424C455F4741505F45565407
:1039A0005F5345435F504152414D535F524551551E
:1039B000455354004343434420666F72207365723D
:1039C00076696365206368616E676564206973204A
:1039D0003078253034780000526563656976656417
:1039E00020424C455F4741505F4556545F5048590F
:1039F0005F555044415445202852583A25642C20A4
:103A000054583A25642C207374617475733A256494
:103A100029000000526563656976656420424C4563
:103A20005F4741505F4556545F5048595F55504479
:103A30004154455F524551554553542E00000000F6
:103A4000436F756C64206E6F742068616E646C6582
:103A5000206F6E5F6374726C5F70745F77726974ED
:103A6000652E206572725F636F64653A2030782539
:103A700030347800526563656976656420424C4550
:103A80005F4741505F4556545F5345435F494E463B
:103A90004F5F5245515545535400000046696E69C9
:103AA000736865642068616E646C696E6720636F1B
:103AB0006E6E20736563207570646174650000002C
:103AC000007800F00100704738B50020009002F047
:103AD0005BFC00282DD117481749184A401AC10825
:103AE000042000EB0140044615A104F095FA1348A8
:103AF00013DF00281DD1204619A104F089FA04F033
:103B000069FE002815D1684604F0CAFC002810D1CF
:103B1000204619A104F07CFA6946012004F0CAFC91
:103B2000002806D120461AA104F072FA684604F073
:103B300059FD38BDD0CC0700C8CC070000100700E5
:103B400053657474696E6720757020766563746F51
:103B500072207461626C653A2030782530387800C4
:103B6000456E61626C696E6720536F66744465765A
:103B70006963652E00000000436F6E6669677572A9
:103B8000696E6720424C4520737461636B2E0000A0
:103B9000456E61626C696E672074686520424C45B1
:103BA00020737461636B2E0013B90378012B01D06D
:103BB00003F026B8012070470022C32100F51870D9
:103BC00000F0CCB92DE9F043A1B00446DDE9289618
:103BD00020200F46209098461546782102A8FDF730
:103BE00038FC41212046FDF734FCB7F8940005EB82
:103BF000051107EB8101A84201D991F89660267062
:103C0000320033D0012A0DD01B481C4D0123401B2C
:103C1000C00803EB0045022A0CD0032A20D0284616
:103C200017A117E000224946404600F097F9C4F872
:103C300001001BE020A9601CCDE900014B46424673
:103C4000184902A801F06AFE80B104F0F5FE0246B0
:103C5000284615A104F0E0F9002021B0BDE8F0836A
:103C6000B1F89820601C9A31FDF7DAFB4A464146CC
:103C7000204602F0C5FFF0E7F8CC0700C8CC0700EB
:103C8000496E76616C696420626F6F742076616C36
:103C900069646174696F6E20747970653A20256477
:103CA0000000000048B507006E72665F63727970AD
:103CB000746F5F686173685F63616C63756C617476
:103CC000652829206661696C6564207769746820BD
:103CD0006572726F722025730000000010B50446F3
:103CE0000A480B49401AC008042101EB004009A111
:103CF00004F08EF94FF0000034B10C490870BDE8B3
:103D000010400B4802F036BD00F084FB18CD0700D0
:103D1000C8CC0700526573657474696E6720626F62
:103D20006F746C6F616465722E000000685900202A
:103D3000154407002DE9FC410646C0074FF0000579
:103D40000ED0104F00240122385D0095002311464B
:103D5000019503F099FE641C042CF4D300F064F880
:103D6000B0070DD5074E0024361D0022305D032319
:103D700000951146019503F087FE641C042CF4D3D2
:103D8000BDE8FC8136B5070010B50446042803D30E
:103D900005A14720FFF73AF90E480121005DBDE873
:103DA000104003F0E3BE00002E2E5C2E2E5C2E2E63
:103DB0005C2E2E5C2E2E5C636F6D706F6E656E7464
:103DC000735C626F617264735C626F617264732EA4
:103DD0006300000036B5070010B50446042803D37D
:103DE00005A14120FFF712F90E480021005DBDE852
:103DF000104003F0BBBE00002E2E5C2E2E5C2E2E3B
:103E00005C2E2E5C2E2E5C636F6D706F6E656E7413
:103E1000735C626F617264735C626F617264732E53
:103E20006300000036B5070010B500242046FFF7F8
:103E3000ABFF641C042CF9D310BD00002DE9F84F32
:103E40000546861C00208DF8000091460F464FF075
:103E5000010A6846FFF74AF81C4C60683860D4E9EC
:103E600001011B4F401A3968081A41F21C0104EB8A
:103E700001080EE00121404600F0EDFF00F03CFE9D
:103E80000146404600F0E7FFD4E90101401A3968D5
:103E9000081A401C8642EDD8B9F1000F03D0052066
:103EA00065F3891002E0062065F39F5061683A6867
:103EB000114004EB8101C8606068304460609DF887
:103EC0000000FFF75FF85046BDE8F88F54810020EE
:103ED000145A002010B543689C18446021B905E0CD
:103EE00013F8010B01F8010B521EF9D2012010BD8D
:103EF00070B50D4604460A2902D10D21FFF7F8FFDF
:103F0000A0682268411CA1601554D4E901018142D6
:103F100004D32046BDE8704003F0BEBA70BD000077
:103F2000044881684068814201D101207047002027
:103F3000704700005481002010B5040003D10549EA
:103F4000F020FFF763F80448C16B6160006CA0606B
:103F500010BD00006CBF07003C760020F0B54FF0AC
:103F6000FF3622B11268D24300230A4D0DE03246DB
:103F7000FAE7C45C62400824D70700D037462F40D8
:103F800087EA5202641EF7D15B1C8B42F1D3D04307
:103F9000F0BD00002083B8ED10B504460068401C59
:103FA00007D0204606F022FC2168814201D1012081
:103FB00010BD002010BD000010B5104C90B060780E
:103FC000002818D101F00EFD18B10D49DB20FFF7D4
:103FD0001DF820220B49684601F024FD40236A4663
:103FE00009490A4801F05AFC18B10549E520FFF7D4
:103FF0000DF80120607010B010BD0000DC590020E9
:104000004CC30700E4B40700E87C002060B507005B
:10401000F0B5146906468DB020681546271DE0B13D
:10402000022920D00A2000906B4609AA304606F0EB
:104030003BF900280FD009A901A8009A05F060FEFD
:1040400001AE96E80F0005AE86E80F0023686968A8
:104050003A4605A898470DB0F0BD0DB03046BDE812
:10406000F04005F0C1BE6946304605F053FE002819
:10407000F1D0236869683A46684698470028EAD034
:1040800002980028F5D1019870600120E3E7536899
:104090009B7813F0C00303D0402B03D0002070475F
:1040A00000F002B8FFF7B4BF2DE9FF410B4651689D
:1040B000064614468878334D00F00F0210F03000A9
:1040C00055F8225006D0102806D0202808D03028D5
:1040D00056D13EE022694DE061690120087047E059
:1040E000022B28D1042A26D84FF001086946304611
:1040F000676905F00FFE00281AD009E00B892269D4
:1041000003FB00226846A84770B13888401C3880FD
:10411000029820B1616838884A899042EED30198AC
:104120007060029860BB02E04FF00008F7E740467D
:1041300004B0BDE8F081D4E904300F8902884989D0
:1041400007FB02338A421BD2521C02801A46616866
:1041500010E008886169072A088009D16068018930
:104160002069FDF776F960682169C06805F0EDFD0A
:104170002269616804B03046AC46BDE8F041604752
:104180000020D5E7E8BB070038B51E4901200A68C2
:10419000D20301D5000408E01B490A6802F0F902C5
:1041A000A92A04D1086800F0560008600020FEF734
:1041B0007BFD1649164A891AC908042202EB0144FC
:1041C000A0B110200090684603F0A4FCD0F81005C0
:1041D0000099C84010F0010F0BD00B48001F006879
:1041E00000F0F900B12807D0002038BD204609A111
:1041F00004E0204610A101E0204617A103F008FFCB
:10420000012038BD000400402005004018CD070003
:10421000C8CC0700444655206D6F64652062656315
:104220006175736520617070206973206E6F7420F2
:1042300076616C69642E0000444655206D6F64659C
:10424000207265717565737465642076696120629A
:104250007574746F6E2E0000444655206D6F646552
:104260002072657175657374656420766961204795
:10427000505245475245542E00000000FEB51949E2
:104280000446086808B1401E08601748174AD4E978
:104290000153801AC008042202EB004022789DB12D
:1042A0000E6821690296CDE900312B46012A16D00D
:1042B0000FA211A103F0D2FE6169002911D0E068BC
:1042C00003B0BDE8F040084709680091012A04D016
:1042D00007A218A103F0AFFEEEE720A2F9E71FA2A4
:1042E000E7E7FEBDC0590020D8CC0700C8CC0700C6
:1042F0006572617365000000466C61736820257308
:10430000206661696C6564202830782578293A2018
:10431000616464723D25702C206C656E3D3078259B
:10432000782062797465732C2070656E64696E679D
:1043300020256400466C61736820257320737563C3
:10434000636573733A20616464723D25702C20703C
:10435000656E64696E672025640000007772697479
:104360006500000010B508281BD2DFE800F0041239
:104370001A1A1A041A040120FFF7DCFC0020FFF7C8
:104380002BFD0120FFF728FDBDE810400220FFF7BC
:10439000FBBC0120FFF7F8FCBDE810400220FFF74E
:1043A0001BBD10BD10B50446801E062810D2DFE8E4
:1043B00000F00D03030F09090A494FF4701000F0D3
:1043C0008DFF05E00120FFF789FC01E002F05EFAB5
:1043D00005484168002903D02046BDE81040084741
:1043E00010BD0000794807006859002010B5044648
:1043F000062801D0072C02D1002002F043FB04481C
:104400000168002903D02046BDE81040084710BDD0
:10441000A459002003F0B4FE03F088FC0028FBD16F
:10442000BFF34F8F05480168054A01F4E06111436D
:104430000160BFF34F8F00BFFDE700000CED00E00F
:104440000400FA0510B50021024800F01AFD80F3BF
:10445000100010BD709100202DE9FC4180461F46E0
:1044600015460E4600240D4800F0F2FC38B111202C
:10447000BDE8FC8106EB043003F0ACFF641CAC42E9
:10448000F8D1064800F0DBFCCDE9005733460022A6
:104490000221404600F02AF80020E9E7FC590020FC
:1044A0002DE9F843104D0F4680461E469146694659
:1044B000286800F098FC040014D01C21FCF7C9FF08
:1044C00001202071C4F81490380BC4F80080C4E9AE
:1044D00002606946286800F0A7FC05F0C5FE0020D0
:1044E000BDE8F8830420FBE7B4B807002DE9F043EA
:1044F00087B00446DDE90E8980681D4616460F46E2
:1045000000280BD018216846FCF7A3FF02A88DF8FD
:10451000007080E86003A1686846884707B0BDE87E
:10452000F08330B50446006887B00D4680680028E7
:104530001FD018216846FCF78CFF0195A0680590F4
:10454000207910B1012810D107E001208DF800007A
:1045500020690290E068039005E002208DF80000D9
:10456000E0680003029060690490206881686846F2
:10457000884707B030BD0B2803D30B38C0B200F01A
:1045800009B870470249002208780A707047000095
:10459000C4590020014908700B207047C4590020FD
:1045A0000149012008707047685900200149012025
:1045B00008707047A059002070B515460E460400DB
:1045C00004D107494FF42C70FEF720FD2A463146EE
:1045D00004F17200BDE87040012302F063BB0000EB
:1045E0004CC3070010B5040003D10E49DB20FEF7D1
:1045F0000DFD207818B90B49DC20FEF707FD94F873
:104600005500094938B1012805D06068C968884259
:1046100005D9012010BD606889688842F9D24FF041
:10462000000010BD94C307003C7600203EB59DF805
:10463000080020F00F00401C20F0F00010308DF832
:10464000080068466DDF00282BD19DF80100401C52
:104650008DF8010068466CDF002822D1114813490B
:10466000007A82071048A0EB01004FEAD0004FF01B
:10467000040101EB004008D50D4C0EA1221DA369D9
:1046800003F0D1FC211DA06904E013A103F0C0FCDC
:1046900019A1072082B202A87CDF002801D11848A6
:1046A0007ADF3EBDA8590020D0CC0700C8CC070057
:1046B000C45E002053657474696E6720616476205F
:1046C0006E616D653A2025732C206C656E67746889
:1046D0003A202564000000005573696E6720646508
:1046E0006661756C74206164766572746973696E55
:1046F00067206E616D6500004466755461726700E5
:1047000036B707002DE9FC5F164607463A4A3B4894
:104710001D46101A04224FEAD00902EB09408B46CD
:104720008246B94205D136A103F072FC0020BDE8F3
:10473000FC9F04D236494FF04F00FEF767FC1DB9CD
:1047400033495020FEF762FC2EB1380503D03049C2
:104750005320FEF75BFCABEB0700040B03D12C49A5
:104760005720FEF753FC0020009006F6FF704FEA3A
:10477000103800F0E9FFA54239D22C4637E0A045B9
:1047800003D83546CDF8048001E0250301940022CA
:104790003846019901F07AFC0028C8D150463B46C2
:1047A0005A461CA1009503F046FC681E00F0030069
:1047B0002A1A002359463846D21C01F01DFD002854
:1047C000B5D101991C48A8EB0108761B016B2F4459
:1047D00029440163AB44002002F040F9009030B15D
:1047E000012101EB094015A103F012FC01E0002EAC
:1047F000C5D100989BE7000018CD0700C8CC070082
:104800004E6F20636F7079206E656564656400008B
:1048100030BD0700436F7079696E67203078257866
:1048200020746F20307825782C2073697A653A20BF
:1048300030782578000000003C7600204661696CE5
:10484000656420746F20777269746520696D616793
:104850006520636F7079696E672070726F6772652B
:10486000737320746F2073657474696E677320703E
:104870006167652E000000000748084910B5401A1E
:10488000C008032101EB004005A103F0C1FBBDE816
:1048900010400120FFF722BA18CD0700C8CC07004E
:1048A000496E61637469766974792074696D656FA6
:1048B00075742E00014941600020704788B80700D8
:1048C00010B50B4941600B4800F0C2FA68B903F01B
:1048D000D3FF08491C234FF4EE7208740448A1F575
:1048E000EE71001F006800F06BFA002010BD0000A0
:1048F000B8B80700A87F00202DE9FC5F0E008346B2
:10490000DDE90C47C6F1000098469246814600D486
:104910000846012503E000BF90FBFAF06D1C5045EE
:10492000FADAA84500D9454624B1002E01DB780704
:1049300000D5641EB80702D5B8F1000F0AD0F807F9
:1049400008D13CB1A54205D220215846641EFFF78C
:10495000CFFAF6E7002E02DA4E462D2102E0780764
:1049600003D52B215846FFF7C3FA07F003000228AE
:104970000BD1B8F1000F08D13CB1A54205D23021CE
:104980005846641EFFF7B4FAF6E7CDE90047434600
:1049900052463146584606F003FCBDE8FC9F0246ED
:1049A00000201268530713D502F00300012802D03B
:1049B00002280CD105E0C2F383100B68801C184458
:1049C00004E00223086803EB9252104408600120BF
:1049D0007047000002480068002800D0012070479E
:1049E000FC5900200248007A002800D001207047BE
:1049F000A87F002038B54FF440521B49536800F59A
:104A000000508B4204D044688C4201D1012400E064
:104A100000248B4226D143688B4223D1117814297C
:104A200001D9526900E000221049B2FBF1F302788B
:104A3000142A01D9406900E00020B0FBF1F0834264
:104A400003D001240AA2009002E000240AA20090F0
:104A50000B480C49401AC008032101EB00400AA191
:104A600003F0E9FA204638BDDBE5B15140420F00C2
:104A70006D616A6F720000006D696E6F72000000F8
:104A8000F8CC0700C8CC0700536F6674446576699C
:104A900063652075706461746520697320612025E9
:104AA000732076657273696F6E20757064617465CA
:104AB0002E2043757272656E743A2025642E204E46
:104AC00065773A2025642E0070B5054608680C46C7
:104AD0004A6886682846314605F058F860682861BB
:104AE00004F10C006861B0780221B1EB901F01D194
:104AF000241D2C6170BD70472DE9FF410026274819
:104B000000F0A3F92548001F074600F09EF9244C49
:104B10002449A06800900D6800E00098694628408C
:104B200004EB80000C30FFF73AFF0028F5D101AA12
:104B3000009901EA050304EB8303491CDB6842F892
:104B40002030401C00910228F2D3019800F00300AD
:104B500001281AD002280ED013A14FF4C270FEF71C
:104B600055FA384600F06EF908B10098A06004B01C
:104B70003046BDE8F0810198032101EB9050009987
:104B8000BDF80A6001EB900005E00198BDF80A60ED
:104B9000C0F3831008440090E3E700006C9100200C
:104BA00054810020145A00202E2E5C2E2E5C2E2EB6
:104BB0005C2E2E5C2E2E5C636F6D706F6E656E7456
:104BC000735C6C69627261726965735C6C6F675C5F
:104BD0007372635C6E72665F6C6F675F66726F6E36
:104BE00074656E642E63000000F082FD4FF4805106
:104BF000002000F093FBC8B91548C0F5FC2100F077
:104C00008DFB98B90021134803F08EFA03F078F871
:104C100011481249401AC408032000EB044010A1B7
:104C200003F0F6F9144800F091FC08B1FEF71CF807
:104C300003F07CF80028FBD1012000EB04400FA119
:104C400003F0E6F903F072F80028FBD1EEE700006C
:104C5000001007000553070018CD0700C8CC070057
:104C6000496E73696465206D61696E2C20646563AB
:104C70007279707400000000654307004166746536
:104C800072206D61696E2C2073686F756C64206E84
:104C90006576657220626520726561636865642E61
:104CA000000000002DE9F05F1E46DDF828B09146B7
:104CB0008A46040003D124A1B620FEF7A7F9B4F870
:104CC0000680607908FB00F8A8F10408464503D384
:104CD0001DA1C420FEF79AF9E788301DB0FBF7F15B
:104CE000B0FBF7F207FB1200D9F80050AA194245B1
:104CF00001D9A8EB0605C9F8005001E02468491E57
:104D00000029FBD13E1A8846AE4215D817E000BFF5
:104D10002044001D0AEB0803BBF1000F324602D00D
:104D20000146184600E01946FCF77AFB002024688B
:104D3000AD1BB044AF4201D92E4600E03E46002DE7
:104D4000E6D1BDE8F09F00002E2E5C2E2E5C2E2EAC
:104D50005C2E2E5C2E2E5C636F6D706F6E656E74B4
:104D6000735C6C69627261726965735C6D656D6FAD
:104D7000626A5C6E72665F6D656D6F626A2E63005B
:104D800030B5024651B103F0E3F90021074C08E0C9
:104D900034F821301568AB4202D11160002030BDDB
:104DA000491C8142F4D3052030BD00000000000002
:104DB00010B5FCF77AFA08B1002010BD112010BD23
:104DC00010B531B1B2FBF3F403FB14241CB109207C
:104DD00010BD0E2010BD0160002141608160828104
:104DE000C381084610BD70B50C460546FCF712FAA3
:104DF000002802D021882868084470BD10B50A88B0
:104E000049888A4203D1FCF747FA012010BD0020EF
:104E100010BD70B50C460546FCF721FA002802D0FB
:104E200061882868084470BD10B50A8849888A429C
:104E300003D1FCF70BFA012010BD002010BD0021AA
:104E400000F00FB8002100F012B8012100F01EB8E8
:104E5000012100F011B808B56A46FCF772FA009813
:104E600008BD08B56A46FCF752FA009808BD08B5B7
:104E70006A46FCF74CFA08BD08B56A46FCF73AFAF0
:104E800008BD08B56A46FCF729FA08BD08B56A46A8
:104E9000FCF730FA009808BD08B56A46FCF75EFAE0
:104EA000009808BD38B5040004D115A14FF49270E4
:104EB000FEF7ACF800258DF800506846FEF716F8AE
:104EC000206862680168914214D9491E01600D781A
:104ED0001CB919A1E820FEF799F8208AE16805FBC2
:104EE00000152068217A0278891A0279C9B28A42AB
:104EF00000D201719DF80000FEF744F8284638BD45
:104F00002E2E5C2E2E5C2E2E5C2E2E5C2E2E5C63A6
:104F10006F6D706F6E656E74735C6C6962726172D6
:104F20006965735C62616C6C6F635C6E72665F6214
:104F3000616C6C6F632E63002E2E5C2E2E5C2E2E09
:104F40005C2E2E5C2E2E5C636F6D706F6E656E74C2
:104F5000735C6C69627261726965735C62616C6CCE
:104F60006F635C6E72665F62616C6C6F632E630070
:104F700038B50C46050004D112A140F24710FEF7E7
:104F800045F824B90FA14FF4A470FEF73FF80020B4
:104F90008DF800006846FDF7A9FF1DB91749F520F7
:104FA000FEF734F8E8682A68211A288AB1FBF0F184
:104FB0001068431C136001709DF80000FDF7E2FFCC
:104FC00038BD00002E2E5C2E2E5C2E2E5C2E2E5C0C
:104FD0002E2E5C636F6D706F6E656E74735C6C69A2
:104FE000627261726965735C62616C6C6F635C6E46
:104FF00072665F62616C6C6F632E6300384F0700EE
:1050000010B5040002D0206830B901E00E2010BDB8
:1050100019A1FF20FDF7FAFF606820B916A14FF42F
:105020008070FDF7F3FFA06820B913A140F20110D2
:10503000FDF7ECFFE06820B90FA14FF48170FDF798
:10504000E5FF208A20B90CA140F20310FDF7DEFF36
:10505000207A61682268401AC0B2116004E02268B8
:1050600011684B1C13600870401EC0B2F7D2216853
:105070000020087110BD00002E2E5C2E2E5C2E2EFE
:105080005C2E2E5C2E2E5C636F6D706F6E656E7481
:10509000735C6C69627261726965735C62616C6C8D
:1050A0006F635C6E72665F62616C6C6F632E63002F
:1050B0002DE9F041184819494FF48052401AC708A9
:1050C000042000EB0745164615A1284602F0A4FF70
:1050D0004FF0E024D4F8802128461FA104F5C074C5
:1050E00002F09AFF60172060C4F800016060C4F805
:1050F000040101F055F928B1012000EB074021A17E
:1051000002F086FF02F012FE0028FBD13046BDE817
:10511000F04100F053B8000018CD0700C8CC0700DC
:1051200052756E6E696E67206E72665F626F6F7425
:105130006C6F616465725F6170705F7374617274CB
:10514000207769746820616464726573733A2030F3
:10515000782530387800000044697361626C696EAC
:105160006720696E74657272757074732E204E5666
:1051700049432D3E494345525B305D3A2030782506
:10518000780000004661696C65642072756E6E6916
:105190006E67206E72665F6466755F6D62725F69CE
:1051A00072715F666F72776172645F616464726569
:1051B00073735F73657428290000000070B506469C
:1051C0002648C0F5FE2100F0A9F80400244825492E
:1051D000A0EB01004FEAD0004FF0010101EB0045C8
:1051E00007D02846224620A102F016FF2046FDF7F0
:1051F0003BFD00F0C1FC014629488069421EC2F314
:105200000B02801A0144002001F6FF7100F086F8BD
:10521000040004D02846224622A102F0FDFE201EF2
:1052200001D0FDF721FDEFF30580C105D6E900456A
:10523000C90D4FF0000080F3148880F3108880F3CC
:10524000118880F3138803D023495820FDF7DEFE30
:1052500084F30888AC46BDE8704060470010070042
:1052600018CD0700C8CC0700436F756C64206E6FC3
:10527000742070726F7465637420626F6F746C6FEA
:105280006164657220616E642073657474696E6711
:10529000732070616765732C20307825782E0000AC
:1052A0003C760020436F756C64206E6F74207072C2
:1052B0006F7465637420536F6674446576696365C3
:1052C00020616E64206170706C69636174696F6ED7
:1052D0002C20307825782E0094BC070070B5084D3E
:1052E00004460E46686805F013FF002C06D03246CF
:1052F00021466868BDE8704005F0FCBE70BD000046
:10530000705900200348D0F804050349097B00EBDD
:10531000016070470040024070590020F0B50A0556
:1053200002D1B0F5FE2F01D90720F0BD134D000BBF
:10533000491E124F01222E1D103700EB113407F1C8
:10534000040C17E04309C3F1000100EB411E02FA0F
:105350000EF106D0012B06D0022B06D0032B08D16C
:1053600005E0296005E0316003E0396001E0CCF838
:105370000010401CA042E5D90020F0BD000600400E
:105380002DE9F0413A483B49384E401AC5080420FF
:1053900000EB05400027044637A102F039FEB06853
:1053A00001280ED0A52813D0AA2818D0AC281ED0CA
:1053B000032000EB054039A102F02AFE0020BDE8E1
:1053C000F08120463CA102F023FEFDF799FB0CE0A2
:1053D00020463CA102F01CFE04F0C6FF0DE0204672
:1053E0003BA102F015FEFDF71BFE024607E020463A
:1053F0003AA102F00DFE05F085F8024601271D498D
:105400001B4B0120591AC90800EB014522B128465F
:1054100036A1B36802F007FE304600F0D1FBDFF89A
:105420000081002188F800103E4801F017FB064675
:1054300098F8000020B93C4940F2A510FDF7E6FDC0
:105440002EB1284639A102F0E3FD0320B7E7012081
:10545000002FB4D005492439096A0129AFD120466B
:10546000394902F0D5FD0220A9E70000607600204E
:1054700018CD0700C8CC0700456E746572206E72A7
:10548000665F626F6F746C6F616465725F66775F91
:105490006163746976617465000000004E6F206678
:1054A00069726D7761726520746F206163746976CB
:1054B0006174652E0000000056616C6964204170C3
:1054C0007000000056616C696420534400000000C5
:1054D00056616C696420424C0000000056616C69A2
:1054E00064205344202B20424C0000004163746927
:1054F000766174696F6E206661696C656420776996
:105500007468206572726F72202564202862616E53
:105510006B20636F64653A2030782578290000009D
:10552000A0590020AD45070030BD0700436F756CE2
:1055300064206E6F7420777269746520736574746B
:10554000696E67732E000000C8BD07002DE9F8439F
:10555000044641484149401AC108042000EB01407B
:1055600005463FA102F054FD434F10207C6000909F
:10557000684602F0CFFA009A404900EB82004FF0F3
:105580000008C0F80017404601F0FAF800284CD196
:10559000FFF7F6FE314A304B01219A1AD20801EB8F
:1055A000024420B101281BD002283ED105E04FF46F
:1055B0007016FEF7E9FD10B934E04FF4A02600F0B4
:1055C000C3F82F4A20211820FDF77AFC08B1FDF717
:1055D0004BFB2C48016801F0F901B12904D007E028
:1055E0000120FEF77BFB31E0016801F04E01016014
:1055F00000F09EFEC8B924493046FFF76FFE2348ED
:1056000000F04AFE88B9284621A102F001FD00BF42
:1056100000F086F8FDF734FC02F088FB0028F7D193
:1056200041DFF5E701F032F810B10320BDE8F8835F
:1056300087F800801A4801F09DF8387820B919A140
:1056400040F20620FDF7E2FCFFF732FD204625A1DF
:1056500002F0DEFCE9E7000018CD0700C8CC070027
:10566000496E206E72665F626F6F746C6F61646505
:10567000725F696E69740000685900200C000300B5
:10568000845A00201C05004079480700A543070004
:10569000456E746572206D61696E206C6F6F70006D
:1056A000A14507002E2E5C2E2E5C2E2E5C2E2E5C2D
:1056B0002E2E5C636F6D706F6E656E74735C6C69BB
:1056C000627261726965735C626F6F746C6F616442
:1056D00065725C6E72665F626F6F746C6F61646539
:1056E000722E6300556E726561636861626C65005D
:1056F00010B540F6F8700168491C02D1074902F064
:1057000081FE40F6FC700168491C05D1BDE81040DF
:105710004FF4FC2102F076BE10BD0000001007001F
:1057200010B503F0D9F9002803D0BDE8104005F00A
:1057300051BE10BD034A93680A4601469860184658
:1057400005F0D8BC705900202DE9F0411A4E307890
:1057500000282ED103F0C0F91849194A0127891AE7
:10576000C908032202EB014500281DD01548046832
:105770002846224614A102F04FFCA4F54864962C5A
:1057800000DA962405F026FE2846224615A102F0EE
:1057900043FC21492046FFF7CDFF4FF0E0214FF4B5
:1057A0008030C1F8000103E028461CA102F030FC63
:1057B0003770BDE8F0810000A1590020C8CC070077
:1057C000C8CC07000405014057445420656E61624F
:1057D0006C6564204352563A2564207469636B7388
:1057E000000000005374617274696E672061207458
:1057F000696D657220282564207469636B732920A4
:10580000666F722066656564696E67207761746390
:1058100068646F672E00000011B4070057445420DD
:105820006973206E6F7420656E61626C6564000040
:1058300040688068004710B542680830527900F02F
:10584000F1F8002010BD2DE9F04399B01C469046B8
:105850000D460846DDF88090FFF7EAFF6E680746C0
:105860007079A04200D804462246414611A800F0B3
:1058700015F97279494601A800F0D4F801AB224627
:1058800011A905F108000097FBF7A2FF18B100204D
:1058900019B0BDE8F08348F24250F9E770B51646FA
:1058A0000C46054600F0E2F800280ED1AA79194608
:1058B000304600F0E8F8002807D131462046FFF7CF
:1058C000BAFF002801D10149216070BD7052464DD8
:1058D0002DE9F8430C46DDE90857814698461646FF
:1058E0000D49204600F0B6F8002810D1606839460E
:1058F00040794200284600F0C6F8002807D146B19A
:1059000043463246214648460095FFF79CFFBDE8D6
:10591000F88348F21050FAE77052464D2DE9F041F5
:105920001D46DDE906871646044600F02DF80028DE
:105930000DD12A463146204600F03CF8002806D119
:105940003A4641462046BDE8F04100F002B8BDE8C5
:10595000F08170B515460E46044605F02BFD002873
:1059600007D13EB160682968C268914205D248F209
:10597000145070BD48F2135070BD83682A463146FA
:105980002046BDE87040184710B550B161B1416084
:10599000096804468847002802D105482060002095
:1059A00010BD48F2015010BD48F2105010BD00006B
:1059B0006E52464870B515460E46044605F0FAFC90
:1059C00000280BD146B155B160682A46314643687C
:1059D0002046BDE87040184748F2105070BD0020C6
:1059E00070BD00002DE9F0410B480C4D0C4F401BE1
:1059F000C60801203870002406E000BF55F83400C6
:105A00008047002805D1641CB442F7D302203870C7
:105A10000020BDE8F0810000000000000000000050
:105A2000A259002070B514460D46064600F036F81F
:105A3000291930192246BDE8704000F02FB870B522
:105A40000C46054600F064F828192146BDE8704070
:105A500000F05EB828B10068884205D048F2405096
:105A6000704748F2105070470020704728B139B194
:105A70000022C1E900201046704748F210507047DC
:105A800048F21350704720B1914205D048F21150AE
:105A9000704748F2105070470020704770B51646A6
:105AA0000C46050003D10AA14520FDF7AFFA1CB949
:105AB00007A14620FDF7AAFAA919491E04E000BF74
:105AC00014F8010B01F80109A942F9D270BD0000D8
:105AD0002E2E5C2E2E5C2E2E5C2E2E5C2E2E5C63CB
:105AE0006F6D706F6E656E74735C6C6962726172FB
:105AF0006965735C63727970746F5C6E72665F6304
:105B0000727970746F5F7368617265642E630000F0
:105B100070B50D46040003D107A13320FDF776FAD6
:105B20006019401E05E02178027804F8012B00F886
:105B30000119A042F7D270BD2E2E5C2E2E5C2E2EA7
:105B40005C2E2E5C2E2E5C636F6D706F6E656E74B6
:105B5000735C6C69627261726965735C637279709F
:105B6000746F5C6E72665F63727970746F5F736876
:105B7000617265642E6300004FF44050074A41682B
:105B8000914207D18068411EC1F30B01401A00F613
:105B9000FF7070474FF4805070470000DBE5B15153
:105BA00000B5FFF7E9FF054989690A18401E084456
:105BB000C0F30B00101A00F6FF7000BD3C76002009
:105BC000002101604160816001480163704700006D
:105BD0003C7600202DE9FF4F8B466948694981B02A
:105BE000401AC108042000EB0144009166A1204640
:105BF00002F00EFA20466CA1019A02F00DFABBF1F8
:105C0000000F01D06EA200E06FA2204670A102F04A
:105C100003FA039808B16AA200E06BA2204671A1C2
:105C200002F0FAF9049808B165A200E066A22046E5
:105C300070A102F0F1F94FF440504168734881427D
:105C400001D15FA200E060A2204671A102F0E4F958
:105C5000204673A102F0DCF9754D204675A1AB69B1
:105C60002A6A02F0E0F920467AA16B6AEA6A02F039
:105C7000DAF94FF00009DFF8FCA10CE0012650B181
:105C8000012812D0B9F1020F1ED07B49AC20FDF7DC
:105C9000BDF900201AE0FFF783FF8046039888B122
:105CA0006348006A01280BD00CE0FFF765FF8046CF
:105CB000049828B94FF4405041685448814201D0BB
:105CC000012604E0002602E04FF480508046D045D3
:105CD00003D96949B120FDF799F968490198A1EB09
:105CE0000801A1F54051814201D2012700E00027BF
:105CF00047EA0B0520464A4661A102F08DF920468D
:105D0000424662A102F088F90FB12DA200E02EA256
:105D1000204664A102F080F90EB129A200E02AA277
:105D2000204666A102F078F90DB125A200E026A276
:105D3000204667A102F070F9B54308D0B9F1020F0F
:105D400005D209F10100C0B28146022896D957B1A7
:105D50000098022101EB004062A102F059F90420F1
:105D600005B0BDE8F08FB9F1000F07D0204668A15B
:105D700002F04EF92E481830FFF722FF0020EFE71F
:105D800018CD0700C8CC0700456E746572206E728E
:105D9000665F6466755F63616368655F7072657096
:105DA0006172652829000000726571756972656409
:105DB0005F73697A653A20307825782E00000000FC
:105DC000747275650000000066616C736500000008
:105DD00073696E676C655F62616E6B3A2025732E26
:105DE000000000006B6565705F6170703A2025737C
:105DF0002E0000006B6565705F736F667464657676
:105E00006963653A2025732E00000000DBE5B1517F
:105E100053445F50524553454E543A2025732E004B
:105E200042616E6B20636F6E74656E74733A00002E
:105E30003C76002042616E6B203020636F64653ACF
:105E4000203078253032783A2053697A653A20300C
:105E50007825780042616E6B203120636F64653A6B
:105E6000203078253032783A2053697A653A2030EC
:105E70007825780000E006000CC10700001007003C
:105E8000706173733A2025642E00000063616368BB
:105E9000655F616464726573733A20307825782E8B
:105EA0000000000063616368655F746F6F5F736D0E
:105EB000616C6C3A2025732E000000006B656570E4
:105EC0005F6669726D776172653A2025732E0000F6
:105ED00064656C6574655F6D6F72653A2025732E1D
:105EE0000000000041626F7274696E672E2043618A
:105EF0006E6E6F7420666974206E657720666972B5
:105F00006D77617265206F6E2064657669636500E8
:105F1000496E76616C69646174696E672061707046
:105F20002E00000070B50C46050004D121494FF445
:105F3000AC70FDF76BF824B91E4940F25910FDF71B
:105F400065F81D481D4B2978C01A0422C00802EBD1
:105F50000040092927D2DFE801F02605260B152687
:105F60001B260F0021462846BDE8704002F0C8BD40
:105F700013A102F04DF811E021462846BDE870401B
:105F800002F062BE21462846BDE8704002F0FABD2C
:105F900014A102F03DF84FF40070E0602046BDE827
:105FA0007040FDF7C9BFBDE8704002494FF4BC70B6
:105FB000FDF72CB86CBF0700E0CC0700C8CC070089
:105FC00048616E646C65204E52465F4446555F4F93
:105FD000505F4352435F4745542028636F6D6D61A6
:105FE0006E64290048616E646C65204E52465F44C1
:105FF00046555F4F505F4F424A4543545F53454CAF
:106000004543542028636F6D6D616E642900000064
:1060100070B50E46040004D11B4940F27520FCF710
:10602000F5FF26B9184940F27620FCF7EFFF2078FB
:106030000125092820D2DFE800F01F051F0F141FDB
:106040001A1F0A003146204602F0E2FE19E03146EE
:10605000204603F033F914E03146204602F09AFE60
:106060000FE03146204602F0DDFF054609E03146EB
:10607000204603F0D7F804E0034940F29720FCF7EC
:10608000C5FF284670BD00006CBF07002DE9F8432E
:10609000134C07460D46206800901248124990465E
:1060A000401AC608042000EB06402B463A460FA1D2
:1060B00001F0C1FF43462A4639461C4801F040FB27
:1060C000050009D0022000EB06402A4618A101F085
:1060D000A3FF2846BDE8F8832068401C2060F8E74D
:1060E000C0590020D8CC0700C8CC07006E72665F8C
:1060F0006673746F726167655F657261736528614D
:106100006464723D307825702C206C656E3D25648A
:10611000207061676573292C207175657565207520
:10612000736167653A20256400000000705A002002
:106130006E72665F6673746F726167655F657261C8
:1061400073652829206661696C65642077697468C5
:10615000206572726F7220307825782E0000000062
:106160000C490D4A10B5891AC908042202EB0142F4
:106170000028104604D009A101F04AFF114903E0AC
:1061800011A101F045FF1A49BDE81040002219484D
:1061900001F036BBD8CC0700C8CC0700496E697443
:1061A00069616C697A696E67206E72665F66737486
:1061B0006F726167655F7364206261636B656E64B3
:1061C0002E000000C4B80700496E697469616C69EB
:1061D0007A696E67206E72665F6673746F7261674C
:1061E000655F6E766D63206261636B656E642E0021
:1061F00094B80700705A00202DE9FC47154C8046E2
:106200000F4620681549CDE9002013489946401AE9
:10621000C6081546042000EB06403B46424610499E
:1062200001F012FF2B463A4641460E48CDF8009049
:1062300001F0AEFB050009D0022000EB06402A4623
:1062400009A101F0E9FE2846BDE8FC872068401C52
:106250002060F8E7C0590020D8CC0700C8CC070060
:10626000B4BE0700705A00206E72665F6673746F6A
:10627000726167655F777269746528292066616954
:106280006C65642077697468206572726F72203063
:106290007825782E0000000070B51149086011487B
:1062A0001149401AC508032000EB05400FA101F079
:1062B000AFFE0020FEF79AF8114800F041FC040000
:1062C00008D0012000EB054022460EA101F0A4FEFB
:1062D000204670BDBDE87040094800F0A7B8000036
:1062E000A459002018CD0700C8CC0700456E74657E
:1062F00072696E6720444655206D6F64652E0000FC
:10630000ED430700436F756C64206E6F7420696EF7
:106310006974616C697A6520444655207472616EB7
:1063200073706F72743A203078253038780000002E
:106330000648074910B5401AC008042101EB004087
:1063400004A101F065FE002010BD000018CD07007B
:10635000C8CC0700696E207765616B206E72665F3E
:106360006466755F696E69745F75736572000000BD
:106370001FB58908002201AB009283E80700684638
:1063800018DF04B010BD00001FB5044B0FCB8DE823
:106390000F00684618DF04B010BD000038B80700D1
:1063A0004FF48050410408600020704770B50E46DD
:1063B0000178134C062901D0012901D1017C2170FB
:1063C00021780125012911D0022913D00D480E4949
:1063D000401AC008012101EB00400CA101F018FE99
:1063E0000020207005207070284670BD3146FFF7F0
:1063F00099FDF9E73146FFF70BFE0546F4E700008B
:10640000C8590020E0CC0700C8CC0700496E76616F
:106410006C6964206F626A656374207479706520AA
:10642000696E20726571756573742E0010B5040075
:1064300011D00120FFF794FE00280BD100F0EEFCF4
:1064400000F0CEFD48B10949081F00F057FD0128B2
:1064500003D0032010BD072010BD04480838C460D5
:106460000020FEF797F8002010BD0000D059002052
:1064700010B5816889B10A4A1821FCF7B1FC040003
:1064800009D008480849401AC008022101EB004021
:1064900006A101F0BDFD204610BD072010BD000083
:1064A000C9640700E0CC0700C8CC070053636865E7
:1064B00064756C65722072616E206F7574206F66F2
:1064C0002073706163652100AFF3008070B50546ED
:1064D000806886B020B9284940F2CF20FCF796FDAD
:1064E000182226496846FAF79BFF28788DF80000A5
:1064F0002348244B2A78181A0421C008224E01EBA5
:1065000000440D2A1CD2DFE802F01B140714141BF0
:10651000141B141B1B1B0C0020461CA101F078FD52
:1065200017E0204622A101F073FDF168072088479B
:106530000FE069462846FFF739FF50B906B070BD35
:10654000032101EB004020A101F066FD02208DF83F
:1065500001009DF80120204623A101F05DFDD5E951
:106560000112684690479DF801000128E6D0F168C5
:1065700005208847E2E700006CBF070060B807000D
:10658000C8CC0700E0CC0700C859002048616E6401
:106590006C65204E52465F4446555F4F505F5245F2
:1065A00043454950545F4E4F5449465F534554004C
:1065B00048616E646C65204E52465F4446555F4F9D
:1065C000505F41424F525400496E76616C696420BD
:1065D0006F70636F64652072656365697665643AA0
:1065E00020307825782E000052657175657374200F
:1065F00068616E646C696E6720636F6D706C657442
:10660000652E20526573756C743A203078257800B9
:1066100038B105490160054941600121017200203E
:1066200070470E207047000031660700696607005A
:1066300010B50C0001464FF0110007D02278052A52
:1066400005D2DFE802F00F050D0F0F000E2010BD80
:10665000084600F073F80028F9D10221217010BD1E
:10666000112010BD082010BD0246082041B10B7852
:10667000022B04D1022A05D0032A00D11120704731
:106680000E207047002003220A70704770B5104832
:106690000024D0F82413491C03D1D0F86403401C13
:1066A00013D00C480C49401AC008042101EB0040EB
:1066B0000AA101F0ADFC4FF4FE25284601F08AFE48
:1066C000C9220349284601F0B5FE204670BD0000EE
:1066D0003C760020F0CC0700C8CC070045726173FF
:1066E000696E672073657474696E67732070616783
:1066F00065206164646974696F6E616C20646174A3
:10670000612E000010B528B11C220349FAF788FE5B
:10671000002010BD0E2010BD64F3070010B5064C1C
:1067200000221821201DFDF719FC2168814201D1AA
:10673000012010BD002010BD64F3070070B50C4DA2
:106740000400D5F8640305F5597503D0401C03D047
:10675000082070BD0E2070BD00221821201DFDF7FD
:10676000FDFB206007222146284629DF70BD00007E
:1067700000F00700014903F0CDBF000000F0070062
:1067800070B5054612481349401AC408042000EBAE
:10679000044011A101F03CFC2846FFF7E1FC020097
:1067A0004FF0010000EB044402D0204613A108E0A2
:1067B00000F06CF8002000F051F9020005D02046EE
:1067C00019A101F029FC032070BD002070BD00005C
:1067D000E8CC0700C8CC070043616C6C696E672089
:1067E0006E72665F6466755F73657474696E6773F5
:1067F0005F696E697428292E2E2E00006E72665F06
:106800006466755F666C6173685F696E6974282978
:10681000206661696C6564207769746820657272AE
:106820006F723A20257800006E72665F6466755F4D
:1068300073657474696E67735F77726974655F619D
:106840006E645F6261636B75702829206661696C94
:1068500065642077697468206572726F723A2025CA
:106860007800000010B5FF224FF400710648FAF7D7
:10687000E9FD054820212438FAF7EBFD0249002004
:106880005C39086310BD0000987600202DE9F05FA8
:106890004048FDF781FB404E074634682046FDF72F
:1068A0007BFB4FF0000A58B16068012806D02046F3
:1068B000FDF782F9D4F85C12884201D1012400E08E
:1068C000002436483649DFF8DC80401AC00803212E
:1068D0004FF002094FF4607B01EB0045F7B1042152
:1068E00001EB0040074630A101F092FB5A462949CE
:1068F0004046FAF795FDDCB1384631A101F088FB3E
:10690000366844465422311D201DFAF789FD4FF4A4
:10691000327206F15C0104F15C0007E06CB32846BA
:10692000324901F075FB5A461E483168FAF778FD86
:10693000D8F80400444601281DD128462CA101F0B6
:1069400067FB3649402201F5E470FAF769FD3349E7
:106950001C22403101F5E470FAF762FD84F860A270
:10696000012184F8A1122E4884F8E2A2E169C0F85E
:106970002210C4F80490BDE8F09F4C4609EB00409B
:10698000284901F045FB59460648FAF762FDC8F868
:106990000440F0E700F00700D8590020E8CC0700D9
:1069A000C8CC07003C7600205573696E672073657C
:1069B0007474696E677320706167652E0000000053
:1069C000436F7079696E6720666F7262696464658F
:1069D0006E2070617274732066726F6D20626163E5
:1069E0006B757020706167652E0000001CC0070089
:1069F0004F6C642073657474696E6773207061678F
:106A0000652064657465637465642E2055706772D3
:106A10006164696E6720696E666F2E00987700204A
:106A2000BC780020B8BF070070B50546094803F0E0
:106A3000DDFE084C20602046FDF7BEF8C4F85C027D
:106A4000A4F5E0632A462146BDE87040024803F001
:106A5000D3BE00003C76002000F0070070B505466C
:106A60000020FFF7E1FF040003D10349284603F0AB
:106A700051FE204670BD00003C7600204FF480504F
:106A8000704700002DE9F0471449DFF85480814633
:106A9000A1EB0800C708134813490026401AC10893
:106AA000042000EB014005463A4610A101F0B4FA7B
:106AB00000240EE008EBC400416848468847060001
:106AC00006D028463346224612A101F0ACFA02E075
:106AD000641CBC42EED33046BDE8F087B8CC07005A
